{
  "contractName": "SupplyChain",
  "abi": [
    {
      "constant": true,
      "inputs": [
        {
          "name": "",
          "type": "uint256"
        }
      ],
      "name": "DIS",
      "outputs": [
        {
          "name": "addr",
          "type": "address"
        },
        {
          "name": "id",
          "type": "uint256"
        },
        {
          "name": "name",
          "type": "string"
        },
        {
          "name": "place",
          "type": "string"
        }
      ],
      "payable": false,
      "stateMutability": "view",
      "type": "function"
    },
    {
      "constant": true,
      "inputs": [],
      "name": "disCtr",
      "outputs": [
        {
          "name": "",
          "type": "uint256"
        }
      ],
      "payable": false,
      "stateMutability": "view",
      "type": "function"
    },
    {
      "constant": true,
      "inputs": [],
      "name": "manCtr",
      "outputs": [
        {
          "name": "",
          "type": "uint256"
        }
      ],
      "payable": false,
      "stateMutability": "view",
      "type": "function"
    },
    {
      "constant": true,
      "inputs": [
        {
          "name": "",
          "type": "uint256"
        }
      ],
      "name": "RET",
      "outputs": [
        {
          "name": "addr",
          "type": "address"
        },
        {
          "name": "id",
          "type": "uint256"
        },
        {
          "name": "name",
          "type": "string"
        },
        {
          "name": "place",
          "type": "string"
        }
      ],
      "payable": false,
      "stateMutability": "view",
      "type": "function"
    },
    {
      "constant": true,
      "inputs": [],
      "name": "retCtr",
      "outputs": [
        {
          "name": "",
          "type": "uint256"
        }
      ],
      "payable": false,
      "stateMutability": "view",
      "type": "function"
    },
    {
      "constant": true,
      "inputs": [],
      "name": "traCtr",
      "outputs": [
        {
          "name": "",
          "type": "uint256"
        }
      ],
      "payable": false,
      "stateMutability": "view",
      "type": "function"
    },
    {
      "constant": true,
      "inputs": [],
      "name": "medicineCtr",
      "outputs": [
        {
          "name": "",
          "type": "uint256"
        }
      ],
      "payable": false,
      "stateMutability": "view",
      "type": "function"
    },
    {
      "constant": true,
      "inputs": [],
      "name": "Owner",
      "outputs": [
        {
          "name": "",
          "type": "address"
        }
      ],
      "payable": false,
      "stateMutability": "view",
      "type": "function"
    },
    {
      "constant": true,
      "inputs": [
        {
          "name": "",
          "type": "uint256"
        }
      ],
      "name": "TRA",
      "outputs": [
        {
          "name": "addr",
          "type": "address"
        },
        {
          "name": "id",
          "type": "uint256"
        },
        {
          "name": "name",
          "type": "string"
        },
        {
          "name": "place",
          "type": "string"
        }
      ],
      "payable": false,
      "stateMutability": "view",
      "type": "function"
    },
    {
      "constant": true,
      "inputs": [
        {
          "name": "",
          "type": "uint256"
        }
      ],
      "name": "MAN",
      "outputs": [
        {
          "name": "addr",
          "type": "address"
        },
        {
          "name": "id",
          "type": "uint256"
        },
        {
          "name": "name",
          "type": "string"
        },
        {
          "name": "place",
          "type": "string"
        }
      ],
      "payable": false,
      "stateMutability": "view",
      "type": "function"
    },
    {
      "constant": true,
      "inputs": [],
      "name": "rmsCtr",
      "outputs": [
        {
          "name": "",
          "type": "uint256"
        }
      ],
      "payable": false,
      "stateMutability": "view",
      "type": "function"
    },
    {
      "constant": true,
      "inputs": [
        {
          "name": "",
          "type": "uint256"
        }
      ],
      "name": "MedicineStock",
      "outputs": [
        {
          "name": "id",
          "type": "uint256"
        },
        {
          "name": "name",
          "type": "string"
        },
        {
          "name": "description",
          "type": "string"
        },
        {
          "name": "quantity",
          "type": "string"
        },
        {
          "name": "receiverId",
          "type": "uint256"
        },
        {
          "name": "RMSid",
          "type": "uint256"
        },
        {
          "name": "Traid",
          "type": "uint256"
        },
        {
          "name": "MANid",
          "type": "uint256"
        },
        {
          "name": "DISid",
          "type": "uint256"
        },
        {
          "name": "RETid",
          "type": "uint256"
        },
        {
          "name": "stage",
          "type": "uint8"
        }
      ],
      "payable": false,
      "stateMutability": "view",
      "type": "function"
    },
    {
      "constant": true,
      "inputs": [
        {
          "name": "",
          "type": "uint256"
        }
      ],
      "name": "RMS",
      "outputs": [
        {
          "name": "addr",
          "type": "address"
        },
        {
          "name": "id",
          "type": "uint256"
        },
        {
          "name": "name",
          "type": "string"
        },
        {
          "name": "place",
          "type": "string"
        }
      ],
      "payable": false,
      "stateMutability": "view",
      "type": "function"
    },
    {
      "inputs": [],
      "payable": false,
      "stateMutability": "nonpayable",
      "type": "constructor"
    },
    {
      "constant": true,
      "inputs": [
        {
          "name": "_medicineID",
          "type": "uint256"
        }
      ],
      "name": "showStage",
      "outputs": [
        {
          "name": "",
          "type": "string"
        }
      ],
      "payable": false,
      "stateMutability": "view",
      "type": "function"
    },
    {
      "constant": false,
      "inputs": [
        {
          "name": "_address",
          "type": "address"
        },
        {
          "name": "_name",
          "type": "string"
        },
        {
          "name": "_place",
          "type": "string"
        }
      ],
      "name": "addRMS",
      "outputs": [],
      "payable": false,
      "stateMutability": "nonpayable",
      "type": "function"
    },
    {
      "constant": false,
      "inputs": [
        {
          "name": "_address",
          "type": "address"
        },
        {
          "name": "_name",
          "type": "string"
        },
        {
          "name": "_place",
          "type": "string"
        }
      ],
      "name": "addTransporter",
      "outputs": [],
      "payable": false,
      "stateMutability": "nonpayable",
      "type": "function"
    },
    {
      "constant": false,
      "inputs": [
        {
          "name": "_address",
          "type": "address"
        },
        {
          "name": "_name",
          "type": "string"
        },
        {
          "name": "_place",
          "type": "string"
        }
      ],
      "name": "addManufacturer",
      "outputs": [],
      "payable": false,
      "stateMutability": "nonpayable",
      "type": "function"
    },
    {
      "constant": false,
      "inputs": [
        {
          "name": "_address",
          "type": "address"
        },
        {
          "name": "_name",
          "type": "string"
        },
        {
          "name": "_place",
          "type": "string"
        }
      ],
      "name": "addDistributor",
      "outputs": [],
      "payable": false,
      "stateMutability": "nonpayable",
      "type": "function"
    },
    {
      "constant": false,
      "inputs": [
        {
          "name": "_address",
          "type": "address"
        },
        {
          "name": "_name",
          "type": "string"
        },
        {
          "name": "_place",
          "type": "string"
        }
      ],
      "name": "addRetailer",
      "outputs": [],
      "payable": false,
      "stateMutability": "nonpayable",
      "type": "function"
    },
    {
      "constant": false,
      "inputs": [
        {
          "name": "_medicineID",
          "type": "uint256"
        }
      ],
      "name": "RMSsupply",
      "outputs": [],
      "payable": false,
      "stateMutability": "nonpayable",
      "type": "function"
    },
    {
      "constant": true,
      "inputs": [
        {
          "name": "_address",
          "type": "address"
        }
      ],
      "name": "findRMS",
      "outputs": [
        {
          "name": "",
          "type": "uint256"
        }
      ],
      "payable": false,
      "stateMutability": "view",
      "type": "function"
    },
    {
      "constant": false,
      "inputs": [
        {
          "name": "_medicineID",
          "type": "uint256"
        }
      ],
      "name": "transportgoods",
      "outputs": [],
      "payable": false,
      "stateMutability": "nonpayable",
      "type": "function"
    },
    {
      "constant": true,
      "inputs": [
        {
          "name": "_address",
          "type": "address"
        }
      ],
      "name": "findTransporter",
      "outputs": [
        {
          "name": "",
          "type": "uint256"
        }
      ],
      "payable": false,
      "stateMutability": "view",
      "type": "function"
    },
    {
      "constant": false,
      "inputs": [
        {
          "name": "_medicineID",
          "type": "uint256"
        }
      ],
      "name": "Manufacturing",
      "outputs": [],
      "payable": false,
      "stateMutability": "nonpayable",
      "type": "function"
    },
    {
      "constant": true,
      "inputs": [
        {
          "name": "_address",
          "type": "address"
        }
      ],
      "name": "findMAN",
      "outputs": [
        {
          "name": "",
          "type": "uint256"
        }
      ],
      "payable": false,
      "stateMutability": "view",
      "type": "function"
    },
    {
      "constant": false,
      "inputs": [
        {
          "name": "_medicineID",
          "type": "uint256"
        }
      ],
      "name": "Distribute",
      "outputs": [],
      "payable": false,
      "stateMutability": "nonpayable",
      "type": "function"
    },
    {
      "constant": true,
      "inputs": [
        {
          "name": "_address",
          "type": "address"
        }
      ],
      "name": "findDIS",
      "outputs": [
        {
          "name": "",
          "type": "uint256"
        }
      ],
      "payable": false,
      "stateMutability": "view",
      "type": "function"
    },
    {
      "constant": false,
      "inputs": [
        {
          "name": "_medicineID",
          "type": "uint256"
        }
      ],
      "name": "Retail",
      "outputs": [],
      "payable": false,
      "stateMutability": "nonpayable",
      "type": "function"
    },
    {
      "constant": true,
      "inputs": [
        {
          "name": "_address",
          "type": "address"
        }
      ],
      "name": "findRET",
      "outputs": [
        {
          "name": "",
          "type": "uint256"
        }
      ],
      "payable": false,
      "stateMutability": "view",
      "type": "function"
    },
    {
      "constant": false,
      "inputs": [
        {
          "name": "_name",
          "type": "string"
        },
        {
          "name": "_description",
          "type": "string"
        },
        {
          "name": "q",
          "type": "string"
        },
        {
          "name": "rid",
          "type": "uint256"
        },
        {
          "name": "currid",
          "type": "uint256"
        },
        {
          "name": "str",
          "type": "uint256"
        }
      ],
      "name": "addMedicine",
      "outputs": [],
      "payable": false,
      "stateMutability": "nonpayable",
      "type": "function"
    }
  ],
  "bytecode": "0x608060405260006001556000600255600060035560006004556000600555600060065534801561002e57600080fd5b50336000806101000a81548173ffffffffffffffffffffffffffffffffffffffff021916908373ffffffffffffffffffffffffffffffffffffffff160217905550613a5f8061007e6000396000f3fe60806040526004361061017a576000357c0100000000000000000000000000000000000000000000000000000000900480630ca3a1ad1461017f57806310fa5763146101ba5780631768c6251461021f5780632a4af440146102845780632b0187ac146104035780632b70b08d1461055d5780632bdb2e6b146106dc5780633d753a1c14610707578063438e9c4d146107425780634def474a1461076d57806356db9477146107a857806359bf286f146109bc5780636a992c9f14610b165780636d4859a914610c955780637e43d94d14610e14578063857ddb0414610e3f57806386c1827514610fbe5780638dc7d8f114610ff95780638e54a3df1461105e57806390d0973814611089578063a48d335a146110ee578063a95f29d914611129578063b4a99a4e14611154578063bc3673cd146111ab578063cc40306914611305578063dd2863981461145f578063e101a2e01461148a578063eb1a06b51461153e578063edf577dd14611710578063eef5cb4014611775575b600080fd5b34801561018b57600080fd5b506101b8600480360360208110156101a257600080fd5b81019080803590602001909291905050506118cf565b005b3480156101c657600080fd5b50610209600480360360208110156101dd57600080fd5b81019080803573ffffffffffffffffffffffffffffffffffffffff16906020019092919050505061195f565b6040518082815260200191505060405180910390f35b34801561022b57600080fd5b5061026e6004803603602081101561024257600080fd5b81019080803573ffffffffffffffffffffffffffffffffffffffff169060200190929190505050611a24565b6040518082815260200191505060405180910390f35b34801561029057600080fd5b50610401600480360360608110156102a757600080fd5b81019080803573ffffffffffffffffffffffffffffffffffffffff169060200190929190803590602001906401000000008111156102e457600080fd5b8201836020820111156102f657600080fd5b8035906020019184600183028401116401000000008311171561031857600080fd5b91908080601f016020809104026020016040519081016040528093929190818152602001838380828437600081840152601f19601f8201169050808301925050505050505091929192908035906020019064010000000081111561037b57600080fd5b82018360208201111561038d57600080fd5b803590602001918460018302840111640100000000831117156103af57600080fd5b91908080601f016020809104026020016040519081016040528093929190818152602001838380828437600081840152601f19601f820116905080830192505050505050509192919290505050611ae9565b005b34801561040f57600080fd5b5061043c6004803603602081101561042657600080fd5b8101908080359060200190929190505050611bdd565b604051808573ffffffffffffffffffffffffffffffffffffffff1673ffffffffffffffffffffffffffffffffffffffff1681526020018481526020018060200180602001838103835285818151815260200191508051906020019080838360005b838110156104b857808201518184015260208101905061049d565b50505050905090810190601f1680156104e55780820380516001836020036101000a031916815260200191505b50838103825284818151815260200191508051906020019080838360005b8381101561051e578082015181840152602081019050610503565b50505050905090810190601f16801561054b5780820380516001836020036101000a031916815260200191505b50965050505050505060405180910390f35b34801561056957600080fd5b506106da6004803603606081101561058057600080fd5b81019080803573ffffffffffffffffffffffffffffffffffffffff169060200190929190803590602001906401000000008111156105bd57600080fd5b8201836020820111156105cf57600080fd5b803590602001918460018302840111640100000000831117156105f157600080fd5b91908080601f016020809104026020016040519081016040528093929190818152602001838380828437600081840152601f19601f8201169050808301925050505050505091929192908035906020019064010000000081111561065457600080fd5b82018360208201111561066657600080fd5b8035906020019184600183028401116401000000008311171561068857600080fd5b91908080601f016020809104026020016040519081016040528093929190818152602001838380828437600081840152601f19601f820116905080830192505050505050509192919290505050611d5d565b005b3480156106e857600080fd5b506106f1611e51565b6040518082815260200191505060405180910390f35b34801561071357600080fd5b506107406004803603602081101561072a57600080fd5b8101908080359060200190929190505050611e57565b005b34801561074e57600080fd5b50610757611f2f565b6040518082815260200191505060405180910390f35b34801561077957600080fd5b506107a66004803603602081101561079057600080fd5b8101908080359060200190929190505050611f35565b005b3480156107b457600080fd5b506109ba600480360360c08110156107cb57600080fd5b81019080803590602001906401000000008111156107e857600080fd5b8201836020820111156107fa57600080fd5b8035906020019184600183028401116401000000008311171561081c57600080fd5b91908080601f016020809104026020016040519081016040528093929190818152602001838380828437600081840152601f19601f8201169050808301925050505050505091929192908035906020019064010000000081111561087f57600080fd5b82018360208201111561089157600080fd5b803590602001918460018302840111640100000000831117156108b357600080fd5b91908080601f016020809104026020016040519081016040528093929190818152602001838380828437600081840152601f19601f8201169050808301925050505050505091929192908035906020019064010000000081111561091657600080fd5b82018360208201111561092857600080fd5b8035906020019184600183028401116401000000008311171561094a57600080fd5b91908080601f016020809104026020016040519081016040528093929190818152602001838380828437600081840152601f19601f82011690508083019250505050505050919291929080359060200190929190803590602001909291908035906020019092919050505061200d565b005b3480156109c857600080fd5b506109f5600480360360208110156109df57600080fd5b8101908080359060200190929190505050612458565b604051808573ffffffffffffffffffffffffffffffffffffffff1673ffffffffffffffffffffffffffffffffffffffff1681526020018481526020018060200180602001838103835285818151815260200191508051906020019080838360005b83811015610a71578082015181840152602081019050610a56565b50505050905090810190601f168015610a9e5780820380516001836020036101000a031916815260200191505b50838103825284818151815260200191508051906020019080838360005b83811015610ad7578082015181840152602081019050610abc565b50505050905090810190601f168015610b045780820380516001836020036101000a031916815260200191505b50965050505050505060405180910390f35b348015610b2257600080fd5b50610c9360048036036060811015610b3957600080fd5b81019080803573ffffffffffffffffffffffffffffffffffffffff16906020019092919080359060200190640100000000811115610b7657600080fd5b820183602082011115610b8857600080fd5b80359060200191846001830284011164010000000083111715610baa57600080fd5b91908080601f016020809104026020016040519081016040528093929190818152602001838380828437600081840152601f19601f82011690508083019250505050505050919291929080359060200190640100000000811115610c0d57600080fd5b820183602082011115610c1f57600080fd5b80359060200191846001830284011164010000000083111715610c4157600080fd5b91908080601f016020809104026020016040519081016040528093929190818152602001838380828437600081840152601f19601f8201169050808301925050505050505091929192905050506125d8565b005b348015610ca157600080fd5b50610e1260048036036060811015610cb857600080fd5b81019080803573ffffffffffffffffffffffffffffffffffffffff16906020019092919080359060200190640100000000811115610cf557600080fd5b820183602082011115610d0757600080fd5b80359060200191846001830284011164010000000083111715610d2957600080fd5b91908080601f016020809104026020016040519081016040528093929190818152602001838380828437600081840152601f19601f82011690508083019250505050505050919291929080359060200190640100000000811115610d8c57600080fd5b820183602082011115610d9e57600080fd5b80359060200191846001830284011164010000000083111715610dc057600080fd5b91908080601f016020809104026020016040519081016040528093929190818152602001838380828437600081840152601f19601f8201169050808301925050505050505091929192905050506126cc565b005b348015610e2057600080fd5b50610e296127c0565b6040518082815260200191505060405180910390f35b348015610e4b57600080fd5b50610fbc60048036036060811015610e6257600080fd5b81019080803573ffffffffffffffffffffffffffffffffffffffff16906020019092919080359060200190640100000000811115610e9f57600080fd5b820183602082011115610eb157600080fd5b80359060200191846001830284011164010000000083111715610ed357600080fd5b91908080601f016020809104026020016040519081016040528093929190818152602001838380828437600081840152601f19601f82011690508083019250505050505050919291929080359060200190640100000000811115610f3657600080fd5b820183602082011115610f4857600080fd5b80359060200191846001830284011164010000000083111715610f6a57600080fd5b91908080601f016020809104026020016040519081016040528093929190818152602001838380828437600081840152601f19601f8201169050808301925050505050505091929192905050506127c6565b005b348015610fca57600080fd5b50610ff760048036036020811015610fe157600080fd5b81019080803590602001909291905050506128ba565b005b34801561100557600080fd5b506110486004803603602081101561101c57600080fd5b81019080803573ffffffffffffffffffffffffffffffffffffffff169060200190929190505050612992565b6040518082815260200191505060405180910390f35b34801561106a57600080fd5b50611073612a57565b6040518082815260200191505060405180910390f35b34801561109557600080fd5b506110d8600480360360208110156110ac57600080fd5b81019080803573ffffffffffffffffffffffffffffffffffffffff169060200190929190505050612a5d565b6040518082815260200191505060405180910390f35b3480156110fa57600080fd5b506111276004803603602081101561111157600080fd5b8101908080359060200190929190505050612b22565b005b34801561113557600080fd5b5061113e612d5b565b6040518082815260200191505060405180910390f35b34801561116057600080fd5b50611169612d61565b604051808273ffffffffffffffffffffffffffffffffffffffff1673ffffffffffffffffffffffffffffffffffffffff16815260200191505060405180910390f35b3480156111b757600080fd5b506111e4600480360360208110156111ce57600080fd5b8101908080359060200190929190505050612d86565b604051808573ffffffffffffffffffffffffffffffffffffffff1673ffffffffffffffffffffffffffffffffffffffff1681526020018481526020018060200180602001838103835285818151815260200191508051906020019080838360005b83811015611260578082015181840152602081019050611245565b50505050905090810190601f16801561128d5780820380516001836020036101000a031916815260200191505b50838103825284818151815260200191508051906020019080838360005b838110156112c65780820151818401526020810190506112ab565b50505050905090810190601f1680156112f35780820380516001836020036101000a031916815260200191505b50965050505050505060405180910390f35b34801561131157600080fd5b5061133e6004803603602081101561132857600080fd5b8101908080359060200190929190505050612f06565b604051808573ffffffffffffffffffffffffffffffffffffffff1673ffffffffffffffffffffffffffffffffffffffff1681526020018481526020018060200180602001838103835285818151815260200191508051906020019080838360005b838110156113ba57808201518184015260208101905061139f565b50505050905090810190601f1680156113e75780820380516001836020036101000a031916815260200191505b50838103825284818151815260200191508051906020019080838360005b83811015611420578082015181840152602081019050611405565b50505050905090810190601f16801561144d5780820380516001836020036101000a031916815260200191505b50965050505050505060405180910390f35b34801561146b57600080fd5b50611474613086565b6040518082815260200191505060405180910390f35b34801561149657600080fd5b506114c3600480360360208110156114ad57600080fd5b810190808035906020019092919050505061308c565b6040518080602001828103825283818151815260200191508051906020019080838360005b838110156115035780820151818401526020810190506114e8565b50505050905090810190601f1680156115305780820380516001836020036101000a031916815260200191505b509250505060405180910390f35b34801561154a57600080fd5b506115776004803603602081101561156157600080fd5b810190808035906020019092919050505061351a565b604051808c81526020018060200180602001806020018b81526020018a81526020018981526020018881526020018781526020018681526020018560048111156115bd57fe5b60ff16815260200184810384528e818151815260200191508051906020019080838360005b838110156115fd5780820151818401526020810190506115e2565b50505050905090810190601f16801561162a5780820380516001836020036101000a031916815260200191505b5084810383528d818151815260200191508051906020019080838360005b83811015611663578082015181840152602081019050611648565b50505050905090810190601f1680156116905780820380516001836020036101000a031916815260200191505b5084810382528c818151815260200191508051906020019080838360005b838110156116c95780820151818401526020810190506116ae565b50505050905090810190601f1680156116f65780820380516001836020036101000a031916815260200191505b509e50505050505050505050505050505060405180910390f35b34801561171c57600080fd5b5061175f6004803603602081101561173357600080fd5b81019080803573ffffffffffffffffffffffffffffffffffffffff169060200190929190505050613749565b6040518082815260200191505060405180910390f35b34801561178157600080fd5b506117ae6004803603602081101561179857600080fd5b810190808035906020019092919050505061380e565b604051808573ffffffffffffffffffffffffffffffffffffffff1673ffffffffffffffffffffffffffffffffffffffff1681526020018481526020018060200180602001838103835285818151815260200191508051906020019080838360005b8381101561182a57808201518184015260208101905061180f565b50505050905090810190601f1680156118575780820380516001836020036101000a031916815260200191505b50838103825284818151815260200191508051906020019080838360005b83811015611890578082015181840152602081019050611875565b50505050905090810190601f1680156118bd5780820380516001836020036101000a031916815260200191505b50965050505050505060405180910390f35b6000811180156118e157506001548111155b15156118ec57600080fd5b60006118f733613749565b905060008111151561190857600080fd5b806007600084815260200190815260200160002060060181905550600160076000848152602001908152602001600020600a0160006101000a81548160ff0219169083600481111561195657fe5b02179055505050565b60008060065411151561197157600080fd5b6000600190505b60065481111515611a19578273ffffffffffffffffffffffffffffffffffffffff16600c600083815260200190815260200160002060000160009054906101000a900473ffffffffffffffffffffffffffffffffffffffff1673ffffffffffffffffffffffffffffffffffffffff161415611a0c57600c600082815260200190815260200160002060010154915050611a1f565b8080600101915050611978565b50600090505b919050565b600080600254111515611a3657600080fd5b6000600190505b60025481111515611ade578273ffffffffffffffffffffffffffffffffffffffff166008600083815260200190815260200160002060000160009054906101000a900473ffffffffffffffffffffffffffffffffffffffff1673ffffffffffffffffffffffffffffffffffffffff161415611ad1576008600082815260200190815260200160002060010154915050611ae4565b8080600101915050611a3d565b50600090505b919050565b6005600081548092919060010191905055506080604051908101604052808473ffffffffffffffffffffffffffffffffffffffff168152602001600554815260200183815260200182815250600b6000600554815260200190815260200160002060008201518160000160006101000a81548173ffffffffffffffffffffffffffffffffffffffff021916908373ffffffffffffffffffffffffffffffffffffffff160217905550602082015181600101556040820151816002019080519060200190611bb792919061398e565b506060820151816003019080519060200190611bd492919061398e565b50905050505050565b600b6020528060005260406000206000915090508060000160009054906101000a900473ffffffffffffffffffffffffffffffffffffffff1690806001015490806002018054600181600116156101000203166002900480601f016020809104026020016040519081016040528092919081815260200182805460018160011615610100020316600290048015611cb55780601f10611c8a57610100808354040283529160200191611cb5565b820191906000526020600020905b815481529060010190602001808311611c9857829003601f168201915b505050505090806003018054600181600116156101000203166002900480601f016020809104026020016040519081016040528092919081815260200182805460018160011615610100020316600290048015611d535780601f10611d2857610100808354040283529160200191611d53565b820191906000526020600020905b815481529060010190602001808311611d3657829003601f168201915b5050505050905084565b6002600081548092919060010191905055506080604051908101604052808473ffffffffffffffffffffffffffffffffffffffff16815260200160025481526020018381526020018281525060086000600254815260200190815260200160002060008201518160000160006101000a81548173ffffffffffffffffffffffffffffffffffffffff021916908373ffffffffffffffffffffffffffffffffffffffff160217905550602082015181600101556040820151816002019080519060200190611e2b92919061398e565b506060820151816003019080519060200190611e4892919061398e565b50905050505050565b60055481565b600081118015611e6957506001548111155b1515611e7457600080fd5b6000611e7f3361195f565b9050600081111515611e9057600080fd5b60016004811115611e9d57fe5b60076000848152602001908152602001600020600a0160009054906101000a900460ff166004811115611ecc57fe5b141515611ed857600080fd5b806007600084815260200190815260200160002060090181905550600460076000848152602001908152602001600020600a0160006101000a81548160ff02191690836004811115611f2657fe5b02179055505050565b60045481565b600081118015611f4757506001548111155b1515611f5257600080fd5b6000611f5d33612992565b9050600081111515611f6e57600080fd5b60016004811115611f7b57fe5b60076000848152602001908152602001600020600a0160009054906101000a900460ff166004811115611faa57fe5b141515611fb657600080fd5b806007600084815260200190815260200160002060080181905550600360076000848152602001908152602001600020600a0160006101000a81548160ff0219169083600481111561200457fe5b02179055505050565b600060025411801561202157506000600454115b801561202f57506000600554115b801561203d57506000600654115b801561204b57506000600354115b151561205657600080fd5b60016000815480929190600101919050555060018114156121b65761016060405190810160405280600154815260200187815260200186815260200185815260200184815260200183815260200160008152602001600081526020016000815260200160008152602001600060048111156120cd57fe5b81525060076000600154815260200190815260200160002060008201518160000155602082015181600101908051906020019061210b92919061398e565b50604082015181600201908051906020019061212892919061398e565b50606082015181600301908051906020019061214592919061398e565b506080820151816004015560a0820151816005015560c0820151816006015560e082015181600701556101008201518160080155610120820151816009015561014082015181600a0160006101000a81548160ff021916908360048111156121a957fe5b0217905550905050612450565b600281141561230457610160604051908101604052806001548152602001878152602001868152602001858152602001848152602001600081526020016000815260200183815260200160008152602001600081526020016002600481111561221b57fe5b81525060076000600154815260200190815260200160002060008201518160000155602082015181600101908051906020019061225992919061398e565b50604082015181600201908051906020019061227692919061398e565b50606082015181600301908051906020019061229392919061398e565b506080820151816004015560a0820151816005015560c0820151816006015560e082015181600701556101008201518160080155610120820151816009015561014082015181600a0160006101000a81548160ff021916908360048111156122f757fe5b021790555090505061244f565b600381141561244e57610160604051908101604052806001548152602001878152602001868152602001858152602001848152602001600081526020016000815260200160008152602001838152602001600081526020016003600481111561236957fe5b8152506007600060015481526020019081526020016000206000820151816000015560208201518160010190805190602001906123a792919061398e565b5060408201518160020190805190602001906123c492919061398e565b5060608201518160030190805190602001906123e192919061398e565b506080820151816004015560a0820151816005015560c0820151816006015560e082015181600701556101008201518160080155610120820151816009015561014082015181600a0160006101000a81548160ff0219169083600481111561244557fe5b02179055509050505b5b5b505050505050565b600c6020528060005260406000206000915090508060000160009054906101000a900473ffffffffffffffffffffffffffffffffffffffff1690806001015490806002018054600181600116156101000203166002900480601f0160208091040260200160405190810160405280929190818152602001828054600181600116156101000203166002900480156125305780601f1061250557610100808354040283529160200191612530565b820191906000526020600020905b81548152906001019060200180831161251357829003601f168201915b505050505090806003018054600181600116156101000203166002900480601f0160208091040260200160405190810160405280929190818152602001828054600181600116156101000203166002900480156125ce5780601f106125a3576101008083540402835291602001916125ce565b820191906000526020600020905b8154815290600101906020018083116125b157829003601f168201915b5050505050905084565b6004600081548092919060010191905055506080604051908101604052808473ffffffffffffffffffffffffffffffffffffffff168152602001600454815260200183815260200182815250600a6000600454815260200190815260200160002060008201518160000160006101000a81548173ffffffffffffffffffffffffffffffffffffffff021916908373ffffffffffffffffffffffffffffffffffffffff1602179055506020820151816001015560408201518160020190805190602001906126a692919061398e565b5060608201518160030190805190602001906126c392919061398e565b50905050505050565b6003600081548092919060010191905055506080604051908101604052808473ffffffffffffffffffffffffffffffffffffffff16815260200160035481526020018381526020018281525060096000600354815260200190815260200160002060008201518160000160006101000a81548173ffffffffffffffffffffffffffffffffffffffff021916908373ffffffffffffffffffffffffffffffffffffffff16021790555060208201518160010155604082015181600201908051906020019061279a92919061398e565b5060608201518160030190805190602001906127b792919061398e565b50905050505050565b60065481565b6006600081548092919060010191905055506080604051908101604052808473ffffffffffffffffffffffffffffffffffffffff168152602001600654815260200183815260200182815250600c6000600654815260200190815260200160002060008201518160000160006101000a81548173ffffffffffffffffffffffffffffffffffffffff021916908373ffffffffffffffffffffffffffffffffffffffff16021790555060208201518160010155604082015181600201908051906020019061289492919061398e565b5060608201518160030190805190602001906128b192919061398e565b50905050505050565b6000811180156128cc57506001548111155b15156128d757600080fd5b60006128e233611a24565b90506000811115156128f357600080fd5b6000600481111561290057fe5b60076000848152602001908152602001600020600a0160009054906101000a900460ff16600481111561292f57fe5b14151561293b57600080fd5b806007600084815260200190815260200160002060050181905550600060076000848152602001908152602001600020600a0160006101000a81548160ff0219169083600481111561298957fe5b02179055505050565b6000806005541115156129a457600080fd5b6000600190505b60055481111515612a4c578273ffffffffffffffffffffffffffffffffffffffff16600b600083815260200190815260200160002060000160009054906101000a900473ffffffffffffffffffffffffffffffffffffffff1673ffffffffffffffffffffffffffffffffffffffff161415612a3f57600b600082815260200190815260200160002060010154915050612a52565b80806001019150506129ab565b50600090505b919050565b60035481565b600080600454111515612a6f57600080fd5b6000600190505b60045481111515612b17578273ffffffffffffffffffffffffffffffffffffffff16600a600083815260200190815260200160002060000160009054906101000a900473ffffffffffffffffffffffffffffffffffffffff1673ffffffffffffffffffffffffffffffffffffffff161415612b0a57600a600082815260200190815260200160002060010154915050612b1d565b8080600101915050612a76565b50600090505b919050565b600081118015612b3457506001548111155b1515612ba8576040517f08c379a00000000000000000000000000000000000000000000000000000000081526004018080602001828103825260198152602001807f6d65646963696e65206964206f7574206f6420626f756e64730000000000000081525060200191505060405180910390fd5b6000612bb333612a5d565b9050600081111515612c2d576040517f08c379a00000000000000000000000000000000000000000000000000000000081526004018080602001828103825260118152602001807f6964206973206c657373207468616e203000000000000000000000000000000081525060200191505060405180910390fd5b60016004811115612c3a57fe5b60076000848152602001908152602001600020600a0160009054906101000a900460ff166004811115612c6957fe5b141515612d04576040517f08c379a00000000000000000000000000000000000000000000000000000000081526004018080602001828103825260288152602001807f6d65646963696e65207374616765206973206e6f7420657175616c20746f207481526020017f72616e73706f727400000000000000000000000000000000000000000000000081525060400191505060405180910390fd5b806007600084815260200190815260200160002060070181905550600260076000848152602001908152602001600020600a0160006101000a81548160ff02191690836004811115612d5257fe5b02179055505050565b60015481565b6000809054906101000a900473ffffffffffffffffffffffffffffffffffffffff1681565b60096020528060005260406000206000915090508060000160009054906101000a900473ffffffffffffffffffffffffffffffffffffffff1690806001015490806002018054600181600116156101000203166002900480601f016020809104026020016040519081016040528092919081815260200182805460018160011615610100020316600290048015612e5e5780601f10612e3357610100808354040283529160200191612e5e565b820191906000526020600020905b815481529060010190602001808311612e4157829003601f168201915b505050505090806003018054600181600116156101000203166002900480601f016020809104026020016040519081016040528092919081815260200182805460018160011615610100020316600290048015612efc5780601f10612ed157610100808354040283529160200191612efc565b820191906000526020600020905b815481529060010190602001808311612edf57829003601f168201915b5050505050905084565b600a6020528060005260406000206000915090508060000160009054906101000a900473ffffffffffffffffffffffffffffffffffffffff1690806001015490806002018054600181600116156101000203166002900480601f016020809104026020016040519081016040528092919081815260200182805460018160011615610100020316600290048015612fde5780601f10612fb357610100808354040283529160200191612fde565b820191906000526020600020905b815481529060010190602001808311612fc157829003601f168201915b505050505090806003018054600181600116156101000203166002900480601f01602080910402602001604051908101604052809291908181526020018280546001816001161561010002031660029004801561307c5780601f106130515761010080835404028352916020019161307c565b820191906000526020600020905b81548152906001019060200180831161305f57829003601f168201915b5050505050905084565b60025481565b6060600060015411151561309f57600080fd5b600060048111156130ac57fe5b60076000848152602001908152602001600020600a0160009054906101000a900460ff1660048111156130db57fe5b141561311e576040805190810160405280601981526020017f526177204d6174657269616c20537570706c79205374616765000000000000008152509050613515565b6001600481111561312b57fe5b60076000848152602001908152602001600020600a0160009054906101000a900460ff16600481111561315a57fe5b14801561317d575060006007600084815260200190815260200160002060070154145b801561319f575060006007600084815260200190815260200160002060080154145b1561320857606060405190810160405280602281526020017f526177204d6174657269616c732073686970706564202d20496e205472616e7381526020017f69740000000000000000000000000000000000000000000000000000000000008152509050613515565b6002600481111561321557fe5b60076000848152602001908152602001600020600a0160009054906101000a900460ff16600481111561324457fe5b1415613287576040805190810160405280601381526020017f4d616e75666163747572696e67205374616765000000000000000000000000008152509050613515565b6001600481111561329457fe5b60076000848152602001908152602001600020600a0160009054906101000a900460ff1660048111156132c357fe5b1480156132e6575060006007600084815260200190815260200160002060080154145b1561334f57606060405190810160405280602e81526020017f50726f6475637420736869707065642066726f6d204d616e756661637475726581526020017f72202d20496e205472616e7369740000000000000000000000000000000000008152509050613515565b6003600481111561335c57fe5b60076000848152602001908152602001600020600a0160009054906101000a900460ff16600481111561338b57fe5b14156133ce576040805190810160405280601281526020017f446973747269627574696f6e20537461676500000000000000000000000000008152509050613515565b600160048111156133db57fe5b60076000848152602001908152602001600020600a0160009054906101000a900460ff16600481111561340a57fe5b14801561342d575060006007600084815260200190815260200160002060090154145b1561349657606060405190810160405280602f81526020017f4d65646963696e657320736869707065642066726f6d2064697374726962757481526020017f6f72202d20496e205472616e73697400000000000000000000000000000000008152509050613515565b6004808111156134a257fe5b60076000848152602001908152602001600020600a0160009054906101000a900460ff1660048111156134d157fe5b1415613514576040805190810160405280600c81526020017f52657461696c20537461676500000000000000000000000000000000000000008152509050613515565b5b919050565b6007602052806000526040600020600091509050806000015490806001018054600181600116156101000203166002900480601f0160208091040260200160405190810160405280929190818152602001828054600181600116156101000203166002900480156135cc5780601f106135a1576101008083540402835291602001916135cc565b820191906000526020600020905b8154815290600101906020018083116135af57829003601f168201915b505050505090806002018054600181600116156101000203166002900480601f01602080910402602001604051908101604052809291908181526020018280546001816001161561010002031660029004801561366a5780601f1061363f5761010080835404028352916020019161366a565b820191906000526020600020905b81548152906001019060200180831161364d57829003601f168201915b505050505090806003018054600181600116156101000203166002900480601f0160208091040260200160405190810160405280929190818152602001828054600181600116156101000203166002900480156137085780601f106136dd57610100808354040283529160200191613708565b820191906000526020600020905b8154815290600101906020018083116136eb57829003601f168201915b50505050509080600401549080600501549080600601549080600701549080600801549080600901549080600a0160009054906101000a900460ff1690508b565b60008060035411151561375b57600080fd5b6000600190505b60035481111515613803578273ffffffffffffffffffffffffffffffffffffffff166009600083815260200190815260200160002060000160009054906101000a900473ffffffffffffffffffffffffffffffffffffffff1673ffffffffffffffffffffffffffffffffffffffff1614156137f6576009600082815260200190815260200160002060010154915050613809565b8080600101915050613762565b50600090505b919050565b60086020528060005260406000206000915090508060000160009054906101000a900473ffffffffffffffffffffffffffffffffffffffff1690806001015490806002018054600181600116156101000203166002900480601f0160208091040260200160405190810160405280929190818152602001828054600181600116156101000203166002900480156138e65780601f106138bb576101008083540402835291602001916138e6565b820191906000526020600020905b8154815290600101906020018083116138c957829003601f168201915b505050505090806003018054600181600116156101000203166002900480601f0160208091040260200160405190810160405280929190818152602001828054600181600116156101000203166002900480156139845780601f1061395957610100808354040283529160200191613984565b820191906000526020600020905b81548152906001019060200180831161396757829003601f168201915b5050505050905084565b828054600181600116156101000203166002900490600052602060002090601f016020900481019282601f106139cf57805160ff19168380011785556139fd565b828001600101855582156139fd579182015b828111156139fc5782518255916020019190600101906139e1565b5b509050613a0a9190613a0e565b5090565b613a3091905b80821115613a2c576000816000905550600101613a14565b5090565b9056fea165627a7a723058205cddcee554fcf5d8f5e450ea460ebc509fa3e96995b8b390751b7b29c84360660029",
  "source": "// SPDX-License-Identifier: MIT\r\npragma solidity >=0.4.22 <0.9.0;\r\n\r\ncontract SupplyChain {\r\n    //Smart Contract owner will be the person who deploys the contract only he can authorize various roles like retailer, Manufacturer,etc\r\n    address public Owner;\r\n\r\n    //note this constructor will be called when smart contract will be deployed on blockchain\r\n    constructor() public {\r\n        Owner = msg.sender;\r\n    }\r\n\r\n    //Roles (flow of pharma supply chain)\r\n    // RawMaterialSupplier; //This is where Manufacturer will get raw materials to make medicines\r\n    // Manufacturer;  //Various WHO guidelines should be followed by this person\r\n    // Distributor; //This guy distributes the medicines to retailers\r\n    // Retailer; //Normal customer buys from the retailer\r\n\r\n    //modifier to make sure only the owner is using the function\r\n    modifier onlyByOwner() {\r\n        require(msg.sender == Owner);\r\n        _;\r\n    }\r\n\r\n    //stages of a medicine in pharma supply chain\r\n    enum STAGE {\r\n        //Init,\r\n        RawMaterialSupply,\r\n        Transporter,\r\n        Manufacture,\r\n        Distribution,\r\n        Retail//,\r\n        //sold\r\n    }\r\n    //using this we are going to track every single medicine the owner orders\r\n\r\n    //Medicine count\r\n    uint256 public medicineCtr = 0;\r\n    //Raw material supplier count\r\n    uint256 public rmsCtr = 0;\r\n    // transporter count\r\n    uint256 public traCtr = 0;\r\n    //Manufacturer count\r\n    uint256 public manCtr = 0;\r\n    //distributor count\r\n    uint256 public disCtr = 0;\r\n    //retailer count\r\n    uint256 public retCtr = 0;\r\n\r\n    //To store information about the medicine\r\n    struct medicine {\r\n        uint256 id; //unique medicine id\r\n        string name; //name of the medicine\r\n        string description; //about medicine\r\n        string quantity;\r\n        uint256 receiverId;\r\n        uint256 RMSid; //id of the Raw Material supplier for this particular medicine\r\n        uint256 Traid; // id of the third party transporter\r\n        uint256 MANid; //id of the Manufacturer for this particular medicine\r\n        uint256 DISid; //id of the distributor for this particular medicine\r\n        uint256 RETid; //id of the retailer for this particular medicine\r\n        STAGE stage; //current medicine stage\r\n    }\r\n\r\n    //To store all the medicines on the blockchain\r\n    mapping(uint256 => medicine) public MedicineStock;\r\n\r\n    //To show status to client applications\r\n    function showStage(uint256 _medicineID)\r\n        public\r\n        view\r\n        returns (string memory)\r\n    {\r\n        require(medicineCtr > 0);\r\n        // if (MedicineStock[_medicineID].stage == STAGE.Init)\r\n        //     return \"Medicine Ordered\";\r\n        if (MedicineStock[_medicineID].stage == STAGE.RawMaterialSupply)\r\n            return \"Raw Material Supply Stage\";\r\n        else if(MedicineStock[_medicineID].stage == STAGE.Transporter && MedicineStock[_medicineID].MANid == 0 && MedicineStock[_medicineID].DISid == 0)\r\n            return \"Raw Materials shipped - In Transit\";\r\n        else if (MedicineStock[_medicineID].stage == STAGE.Manufacture)\r\n            return \"Manufacturing Stage\";\r\n        else if(MedicineStock[_medicineID].stage == STAGE.Transporter && MedicineStock[_medicineID].DISid == 0)\r\n            return \"Product shipped from Manufacturer - In Transit\";\r\n        else if (MedicineStock[_medicineID].stage == STAGE.Distribution)\r\n            return \"Distribution Stage\";\r\n        else if(MedicineStock[_medicineID].stage == STAGE.Transporter && MedicineStock[_medicineID].RETid == 0)\r\n            return \"Medicines shipped from distributor - In Transit\";\r\n        else if (MedicineStock[_medicineID].stage == STAGE.Retail)\r\n            return \"Retail Stage\";\r\n        // else if (MedicineStock[_medicineID].stage == STAGE.sold)\r\n        //     return \"Medicine Sold\";\r\n    }\r\n\r\n    //To store information about raw material supplier\r\n    struct rawMaterialSupplier {\r\n        address addr;\r\n        uint256 id; //supplier id\r\n        string name; //Name of the raw material supplier\r\n        string place; //Place the raw material supplier is based in\r\n    }\r\n\r\n    //To store all the transporter details on the blockchain\r\n    mapping(uint256 => rawMaterialSupplier) public RMS;\r\n\r\n    struct transporter {\r\n        address addr;\r\n        uint256 id; //transporter id\r\n        string name; //Name of the transporter\r\n        string place; //Place the transporter is based in\r\n    }\r\n\r\n    //To store all the raw material suppliers on the blockchain\r\n    mapping(uint256 => transporter) public TRA;\r\n\r\n    //To store information about manufacturer\r\n    struct manufacturer {\r\n        address addr;\r\n        uint256 id; //manufacturer id\r\n        string name; //Name of the manufacturer\r\n        string place; //Place the manufacturer is based in\r\n    }\r\n\r\n    //To store all the manufacturers on the blockchain\r\n    mapping(uint256 => manufacturer) public MAN;\r\n\r\n    //To store information about distributor\r\n    struct distributor {\r\n        address addr;\r\n        uint256 id; //distributor id\r\n        string name; //Name of the distributor\r\n        string place; //Place the distributor is based in\r\n    }\r\n\r\n    //To store all the distributors on the blockchain\r\n    mapping(uint256 => distributor) public DIS;\r\n\r\n    //To store information about retailer\r\n    struct retailer {\r\n        address addr;\r\n        uint256 id; //retailer id\r\n        string name; //Name of the retailer\r\n        string place; //Place the retailer is based in\r\n    }\r\n\r\n    //To store all the retailers on the blockchain\r\n    mapping(uint256 => retailer) public RET;\r\n\r\n    //To add raw material suppliers. Only contract owner can add a new raw material supplier\r\n    function addRMS(\r\n        address _address,\r\n        string memory _name,\r\n        string memory _place\r\n    ) public /*onlyByOwner() */ {\r\n        rmsCtr++;\r\n        RMS[rmsCtr] = rawMaterialSupplier(_address, rmsCtr, _name, _place);\r\n    }\r\n\r\n    // To add transporter. \r\n    function addTransporter(\r\n        address _address,\r\n        string memory _name,\r\n        string memory _place\r\n    ) public {\r\n        traCtr++;\r\n        TRA[traCtr] = transporter(_address, traCtr, _name, _place);\r\n    }\r\n\r\n    //To add manufacturer. Only contract owner can add a new manufacturer\r\n    function addManufacturer(\r\n        address _address,\r\n        string memory _name,\r\n        string memory _place\r\n    ) public /*onlyByOwner()*/ {\r\n        manCtr++;\r\n        MAN[manCtr] = manufacturer(_address, manCtr, _name, _place);\r\n    }\r\n\r\n    //To add distributor. Only contract owner can add a new distributor\r\n    function addDistributor(\r\n        address _address,\r\n        string memory _name,\r\n        string memory _place\r\n    ) public /*onlyByOwner()*/ {\r\n        disCtr++;\r\n        DIS[disCtr] = distributor(_address, disCtr, _name, _place);\r\n    }\r\n\r\n    //To add retailer. Only contract owner can add a new retailer\r\n    function addRetailer(\r\n        address _address,\r\n        string memory _name,\r\n        string memory _place\r\n    ) public /*onlyByOwner()*/ {\r\n        retCtr++;\r\n        RET[retCtr] = retailer(_address, retCtr, _name, _place);\r\n    }\r\n\r\n    //To supply raw materials from RMS supplier to the manufacturer\r\n    function RMSsupply(uint256 _medicineID) public {\r\n        require(_medicineID > 0 && _medicineID <= medicineCtr);\r\n        uint256 _id = findRMS(msg.sender);\r\n        require(_id > 0);\r\n        require(MedicineStock[_medicineID].stage == STAGE.RawMaterialSupply);\r\n        MedicineStock[_medicineID].RMSid = _id;\r\n        MedicineStock[_medicineID].stage = STAGE.RawMaterialSupply;\r\n    }\r\n\r\n    //To check if RMS is available in the blockchain\r\n    function findRMS(address _address) public view returns (uint256) {\r\n        require(rmsCtr > 0);\r\n        for (uint256 i = 1; i <= rmsCtr; i++) {\r\n            if (RMS[i].addr == _address) return RMS[i].id;\r\n        }\r\n        return 0;\r\n    }\r\n\r\n    //To transport\r\n    function transportgoods(uint256 _medicineID) public {\r\n        require(_medicineID > 0 && _medicineID <= medicineCtr);\r\n        uint256 _id = findTransporter(msg.sender);\r\n        require(_id > 0);\r\n        //require(MedicineStock[_medicineID].stage == STAGE.RawMaterialSupply);\r\n        // if(MedicineStock[_medicineID].stage == STAGE.RawMaterialSupply) {\r\n            MedicineStock[_medicineID].Traid = _id;\r\n            MedicineStock[_medicineID].stage = STAGE.Transporter;\r\n        // } else if(MedicineStock[_medicineID].stage == STAGE.)\r\n    }\r\n\r\n    //To check if transporter is available in the blockchain\r\n    function findTransporter(address _address) public view returns (uint256) {\r\n        require(traCtr > 0);\r\n        for (uint256 i = 1; i <= traCtr; i++) {\r\n            if (TRA[i].addr == _address) return TRA[i].id;\r\n        }\r\n        return 0;\r\n    }\r\n\r\n    //To manufacture medicine\r\n    function Manufacturing(uint256 _medicineID) public {\r\n        require(_medicineID > 0 && _medicineID <= medicineCtr, \"medicine id out od bounds\");\r\n        uint256 _id = findMAN(msg.sender);\r\n        require(_id > 0, \"id is less than 0\");\r\n        require(MedicineStock[_medicineID].stage == STAGE.Transporter, \"medicine stage is not equal to transport\");\r\n        MedicineStock[_medicineID].MANid = _id;\r\n        MedicineStock[_medicineID].stage = STAGE.Manufacture;\r\n    }\r\n\r\n    //To check if Manufacturer is available in the blockchain\r\n    function findMAN(address _address) public view returns (uint256) {\r\n        require(manCtr > 0);\r\n        for (uint256 i = 1; i <= manCtr; i++) {\r\n            if (MAN[i].addr == _address) return MAN[i].id;\r\n        }\r\n        return 0;\r\n    }\r\n\r\n    //To supply medicines from Manufacturer to distributor\r\n    function Distribute(uint256 _medicineID) public {\r\n        require(_medicineID > 0 && _medicineID <= medicineCtr);\r\n        uint256 _id = findDIS(msg.sender);\r\n        require(_id > 0);\r\n        require(MedicineStock[_medicineID].stage == STAGE.Transporter);\r\n        MedicineStock[_medicineID].DISid = _id;\r\n        MedicineStock[_medicineID].stage = STAGE.Distribution;\r\n    }\r\n\r\n    //To check if distributor is available in the blockchain\r\n    function findDIS(address _address) public view returns (uint256) {\r\n        require(disCtr > 0);\r\n        for (uint256 i = 1; i <= disCtr; i++) {\r\n            if (DIS[i].addr == _address) return DIS[i].id;\r\n        }\r\n        return 0;\r\n    }\r\n\r\n    //To supply medicines from distributor to retailer\r\n    function Retail(uint256 _medicineID) public {\r\n        require(_medicineID > 0 && _medicineID <= medicineCtr);\r\n        uint256 _id = findRET(msg.sender);\r\n        require(_id > 0);\r\n        require(MedicineStock[_medicineID].stage == STAGE.Transporter);\r\n        MedicineStock[_medicineID].RETid = _id;\r\n        MedicineStock[_medicineID].stage = STAGE.Retail;\r\n    }\r\n\r\n    //To check if retailer is available in the blockchain\r\n    function findRET(address _address) public view returns (uint256) {\r\n        require(retCtr > 0);\r\n        for (uint256 i = 1; i <= retCtr; i++) {\r\n            if (RET[i].addr == _address) return RET[i].id;\r\n        }\r\n        return 0;\r\n    }\r\n\r\n    //To sell medicines from retailer to consumer\r\n    // function sold(uint256 _medicineID) public {\r\n    //     require(_medicineID > 0 && _medicineID <= medicineCtr);\r\n    //     uint256 _id = findRET(msg.sender);\r\n    //     require(_id > 0);\r\n    //     require(_id == MedicineStock[_medicineID].RETid); //Only correct retailer can mark medicine as sold\r\n    //     require(MedicineStock[_medicineID].stage == STAGE.Retail);\r\n    //     MedicineStock[_medicineID].stage = STAGE.sold;\r\n    // }\r\n\r\n    // To add new medicines to the stock\r\n    function addMedicine(string memory _name, string memory _description, string memory q, uint256 rid, uint256 currid, uint256 str)\r\n        public\r\n        /*onlyByOwner()*/\r\n    {\r\n        require((rmsCtr > 0) && (manCtr > 0) && (disCtr > 0) && (retCtr > 0) && (traCtr > 0));\r\n        medicineCtr++;\r\n        if(str == 1) {\r\n            MedicineStock[medicineCtr] = medicine(\r\n                medicineCtr,\r\n                _name,\r\n                _description,\r\n                q,\r\n                rid,\r\n                currid,\r\n                0,\r\n                0,\r\n                0,\r\n                0,\r\n                STAGE.RawMaterialSupply\r\n            );\r\n        } else if(str == 2) {\r\n            MedicineStock[medicineCtr] = medicine(\r\n                medicineCtr,\r\n                _name,\r\n                _description,\r\n                q,\r\n                rid,\r\n                0,\r\n                0,\r\n                currid,\r\n                0,\r\n                0,\r\n                STAGE.Manufacture\r\n            );\r\n        } else if(str == 3) {\r\n            MedicineStock[medicineCtr] = medicine(\r\n                medicineCtr,\r\n                _name,\r\n                _description,\r\n                q,\r\n                rid,\r\n                0,\r\n                0,\r\n                0,\r\n                currid,\r\n                0,\r\n                STAGE.Distribution\r\n            );\r\n        }\r\n    }\r\n}\r\n",
  "sourcePath": "C:\\mypractise\\blockchain project\\Supply-Chain-Blockchain\\contracts\\SupplyChain.sol",
  "compiler": {
    "name": "solc",
    "version": "0.5.1+commit.c8a2cb62.Emscripten.clang"
  },
  "schemaVersion": "3.4.16",
  "updatedAt": "2025-03-05T09:10:51.966Z",
  "networkType": "ethereum",
  "devdoc": {
    "methods": {}
  },
  "userdoc": {
    "methods": {}
  }
}